:0400000097EF0FF077
:101F2800F9F3E7CFDEFC280EF66E1F0EF76E000EF3
:101F3800F86E00EE40F0060E706E0900F5CFEEFF69
:101F48007006FBE1C168926A9568FF0E806E835047
:101F5800030B05E083A206D083B00DD01FD0FF0E7F
:101F6800806EF3D7BF0E806EF9EC0FF0FF0E806E17
:101F7800F9EC0FF0EAD7060E106EF90E806EF9EC48
:101F88000FF01050EAEC0FF0806EF9EC0FF0030E32
:101F98008362DBD7010E105EEEE0F4D7060E906E7A
:101FA800010E106EF90E806E106AF9EC0FF01050E9
:101FB800EAEC0FF0806EF9EC0FF0020E8362C5D7E1
:101FC800010E102610509062F3D7E8D700EE40F0CB
:101FD800EB501200FF0EE8040000000000000000B3
:101FE800000000000000F7E11300640E106EEEEC34
:081FF8000FF01006FCE11300DC
:020000040030CA
:0300010008191EBD
:020005008384F2
:0600080003C003E0034009
:00000001FF
