:020000040000FA
:04000000E8EF0EF027
:101DCA00F9F3E7CFDEFCCA0EF66E1D0EF76E000EB3
:101DDA00F86E00EE13F010EE06F00900F5CFEEFFF4
:101DEA00E550E150FAE1000153EF0FF0000E066EE4
:101DFA0002BE04EF0FF002EF0FF00AEF0FF0016CD2
:101E0A00021ED8B0022A010E066E04BE11EF0FF0B0
:101E1A000FEF0FF015EF0FF0036C041ED8B0042A71
:101E2A0003500410D8B41CEF0FF01EEF0FF042EF6E
:101E3A000FF0010E056E26EF0FF0D8900336043628
:101E4A00052A04AE2BEF0FF02DEF0FF022EF0FF063
:101E5A000350015C04500258D8A036EF0FF038EF57
:101E6A000FF03CEF0FF00350015E0450025AD89075
:101E7A0004320332052E2DEF0FF00650D8B448EF86
:101E8A000FF04AEF0FF04EEF0FF0016C021ED8B0C0
:101E9A00022A01C001F002C002F0120020EE13F083
:101EAA0010EE09F0050EDBCFE3FFE806FCE2C1689D
:101EBA00000E926E000E106E000E0F6E000E126E65
:101ECA00050E116E83B06CEF0FF06EEF0FF088EF16
:101EDA000FF083A273EF0FF075EF0FF088EF0FF09A
:101EEA00BF0E806EA30E076E550EE82EFED7072E84
:101EFA00FCD700F08068A30E076E550EE82EFED7B9
:101F0A00072EFCD700F083A08DEF0FF08FEF0FF0B4
:101F1A00BCEF0FF083B294EF0FF096EF0FF0BCEF27
:101F2A000FF00F0E0F14076E000E1014086E090E34
:101F3A000724D96E000E0820DA6EDF50806EA30ED9
:101F4A00076E550EE82EFED7072EFCD700F0010EBD
:101F5A000F24016E000E1020026E000E046E060E93
:101F6A00036EFBEC0EF001C00FF002C010F083A06C
:101F7A00C1EF0FF0C3EF0FF0FBEF0FF083A2C8EF32
:101F8A000FF0CAEF0FF0FBEF0FF00F0E1114076EF0
:101F9A00000E1214086E090E0724D96E000E0820CE
:101FAA00DA6EDF50806EA30E076E550EE82EFED74E
:101FBA00072EFCD700F0FF0E1124016EFF0E12202F
:101FCA00026E000E046E060E036EFBEC0EF001C0EC
:101FDA0011F002C012F012BEF7EF0FF0F5EF0FF09A
:101FEA00FBEF0FF0000E126E050E116E806867EFA0
:061FFA000FF000EF00F003
:020000040020DA
:08000000FFFFFFFFFFFFFFFF00
:020000040030CA
:0E000000FF08191EFF8384FF03C003E00340C6
:00000001FF
